{
  "address": "0x383c7c01Afc7b55F6531b9a09adA22F7ac30f794",
  "abi": [
    {
      "inputs": [],
      "stateMutability": "nonpayable",
      "type": "constructor"
    },
    {
      "anonymous": false,
      "inputs": [
        {
          "indexed": true,
          "internalType": "address",
          "name": "owner",
          "type": "address"
        },
        {
          "indexed": true,
          "internalType": "address",
          "name": "approved",
          "type": "address"
        },
        {
          "indexed": true,
          "internalType": "uint256",
          "name": "tokenId",
          "type": "uint256"
        }
      ],
      "name": "Approval",
      "type": "event"
    },
    {
      "anonymous": false,
      "inputs": [
        {
          "indexed": true,
          "internalType": "address",
          "name": "owner",
          "type": "address"
        },
        {
          "indexed": true,
          "internalType": "address",
          "name": "operator",
          "type": "address"
        },
        {
          "indexed": false,
          "internalType": "bool",
          "name": "approved",
          "type": "bool"
        }
      ],
      "name": "ApprovalForAll",
      "type": "event"
    },
    {
      "anonymous": false,
      "inputs": [
        {
          "indexed": true,
          "internalType": "address",
          "name": "user",
          "type": "address"
        },
        {
          "indexed": false,
          "internalType": "uint256",
          "name": "amount",
          "type": "uint256"
        }
      ],
      "name": "BlindBoxClaimed",
      "type": "event"
    },
    {
      "anonymous": false,
      "inputs": [
        {
          "indexed": true,
          "internalType": "address",
          "name": "previousOwner",
          "type": "address"
        },
        {
          "indexed": true,
          "internalType": "address",
          "name": "newOwner",
          "type": "address"
        }
      ],
      "name": "OwnershipTransferred",
      "type": "event"
    },
    {
      "anonymous": false,
      "inputs": [
        {
          "indexed": true,
          "internalType": "address",
          "name": "from",
          "type": "address"
        },
        {
          "indexed": true,
          "internalType": "address",
          "name": "to",
          "type": "address"
        },
        {
          "indexed": true,
          "internalType": "uint256",
          "name": "tokenId",
          "type": "uint256"
        }
      ],
      "name": "Transfer",
      "type": "event"
    },
    {
      "inputs": [],
      "name": "STATUS_CLAIM",
      "outputs": [
        {
          "internalType": "uint256",
          "name": "",
          "type": "uint256"
        }
      ],
      "stateMutability": "view",
      "type": "function"
    },
    {
      "inputs": [],
      "name": "STATUS_INIT",
      "outputs": [
        {
          "internalType": "uint256",
          "name": "",
          "type": "uint256"
        }
      ],
      "stateMutability": "view",
      "type": "function"
    },
    {
      "inputs": [
        {
          "internalType": "address",
          "name": "to",
          "type": "address"
        },
        {
          "internalType": "uint256",
          "name": "tokenId",
          "type": "uint256"
        }
      ],
      "name": "approve",
      "outputs": [],
      "stateMutability": "nonpayable",
      "type": "function"
    },
    {
      "inputs": [
        {
          "internalType": "address",
          "name": "owner",
          "type": "address"
        }
      ],
      "name": "balanceOf",
      "outputs": [
        {
          "internalType": "uint256",
          "name": "",
          "type": "uint256"
        }
      ],
      "stateMutability": "view",
      "type": "function"
    },
    {
      "inputs": [],
      "name": "baseURI",
      "outputs": [
        {
          "internalType": "string",
          "name": "",
          "type": "string"
        }
      ],
      "stateMutability": "view",
      "type": "function"
    },
    {
      "inputs": [
        {
          "internalType": "uint256",
          "name": "_amount",
          "type": "uint256"
        },
        {
          "internalType": "bytes32[]",
          "name": "_proof",
          "type": "bytes32[]"
        }
      ],
      "name": "claim",
      "outputs": [],
      "stateMutability": "nonpayable",
      "type": "function"
    },
    {
      "inputs": [
        {
          "internalType": "address",
          "name": "",
          "type": "address"
        }
      ],
      "name": "claimed",
      "outputs": [
        {
          "internalType": "bool",
          "name": "",
          "type": "bool"
        }
      ],
      "stateMutability": "view",
      "type": "function"
    },
    {
      "inputs": [
        {
          "internalType": "uint256",
          "name": "tokenId",
          "type": "uint256"
        }
      ],
      "name": "getApproved",
      "outputs": [
        {
          "internalType": "address",
          "name": "",
          "type": "address"
        }
      ],
      "stateMutability": "view",
      "type": "function"
    },
    {
      "inputs": [
        {
          "internalType": "address",
          "name": "_user",
          "type": "address"
        },
        {
          "internalType": "uint256",
          "name": "_amount",
          "type": "uint256"
        },
        {
          "internalType": "bytes32[]",
          "name": "_proof",
          "type": "bytes32[]"
        }
      ],
      "name": "isAllowedToClaim",
      "outputs": [
        {
          "internalType": "bool",
          "name": "",
          "type": "bool"
        }
      ],
      "stateMutability": "view",
      "type": "function"
    },
    {
      "inputs": [
        {
          "internalType": "address",
          "name": "owner",
          "type": "address"
        },
        {
          "internalType": "address",
          "name": "operator",
          "type": "address"
        }
      ],
      "name": "isApprovedForAll",
      "outputs": [
        {
          "internalType": "bool",
          "name": "",
          "type": "bool"
        }
      ],
      "stateMutability": "view",
      "type": "function"
    },
    {
      "inputs": [],
      "name": "merkleRoot",
      "outputs": [
        {
          "internalType": "bytes32",
          "name": "",
          "type": "bytes32"
        }
      ],
      "stateMutability": "view",
      "type": "function"
    },
    {
      "inputs": [],
      "name": "mintedAmount",
      "outputs": [
        {
          "internalType": "uint256",
          "name": "",
          "type": "uint256"
        }
      ],
      "stateMutability": "view",
      "type": "function"
    },
    {
      "inputs": [],
      "name": "name",
      "outputs": [
        {
          "internalType": "string",
          "name": "",
          "type": "string"
        }
      ],
      "stateMutability": "view",
      "type": "function"
    },
    {
      "inputs": [],
      "name": "owner",
      "outputs": [
        {
          "internalType": "address",
          "name": "",
          "type": "address"
        }
      ],
      "stateMutability": "view",
      "type": "function"
    },
    {
      "inputs": [
        {
          "internalType": "uint256",
          "name": "tokenId",
          "type": "uint256"
        }
      ],
      "name": "ownerOf",
      "outputs": [
        {
          "internalType": "address",
          "name": "",
          "type": "address"
        }
      ],
      "stateMutability": "view",
      "type": "function"
    },
    {
      "inputs": [],
      "name": "renounceOwnership",
      "outputs": [],
      "stateMutability": "nonpayable",
      "type": "function"
    },
    {
      "inputs": [
        {
          "internalType": "address",
          "name": "from",
          "type": "address"
        },
        {
          "internalType": "address",
          "name": "to",
          "type": "address"
        },
        {
          "internalType": "uint256",
          "name": "tokenId",
          "type": "uint256"
        }
      ],
      "name": "safeTransferFrom",
      "outputs": [],
      "stateMutability": "nonpayable",
      "type": "function"
    },
    {
      "inputs": [
        {
          "internalType": "address",
          "name": "from",
          "type": "address"
        },
        {
          "internalType": "address",
          "name": "to",
          "type": "address"
        },
        {
          "internalType": "uint256",
          "name": "tokenId",
          "type": "uint256"
        },
        {
          "internalType": "bytes",
          "name": "data",
          "type": "bytes"
        }
      ],
      "name": "safeTransferFrom",
      "outputs": [],
      "stateMutability": "nonpayable",
      "type": "function"
    },
    {
      "inputs": [
        {
          "internalType": "address",
          "name": "operator",
          "type": "address"
        },
        {
          "internalType": "bool",
          "name": "approved",
          "type": "bool"
        }
      ],
      "name": "setApprovalForAll",
      "outputs": [],
      "stateMutability": "nonpayable",
      "type": "function"
    },
    {
      "inputs": [
        {
          "internalType": "string",
          "name": "baseURI_",
          "type": "string"
        }
      ],
      "name": "setBaseURI",
      "outputs": [],
      "stateMutability": "nonpayable",
      "type": "function"
    },
    {
      "inputs": [
        {
          "internalType": "bytes32",
          "name": "_merkleRoot",
          "type": "bytes32"
        }
      ],
      "name": "setRoot",
      "outputs": [],
      "stateMutability": "nonpayable",
      "type": "function"
    },
    {
      "inputs": [],
      "name": "start",
      "outputs": [],
      "stateMutability": "nonpayable",
      "type": "function"
    },
    {
      "inputs": [],
      "name": "status",
      "outputs": [
        {
          "internalType": "uint256",
          "name": "",
          "type": "uint256"
        }
      ],
      "stateMutability": "view",
      "type": "function"
    },
    {
      "inputs": [],
      "name": "stop",
      "outputs": [],
      "stateMutability": "nonpayable",
      "type": "function"
    },
    {
      "inputs": [
        {
          "internalType": "bytes4",
          "name": "interfaceId",
          "type": "bytes4"
        }
      ],
      "name": "supportsInterface",
      "outputs": [
        {
          "internalType": "bool",
          "name": "",
          "type": "bool"
        }
      ],
      "stateMutability": "view",
      "type": "function"
    },
    {
      "inputs": [],
      "name": "symbol",
      "outputs": [
        {
          "internalType": "string",
          "name": "",
          "type": "string"
        }
      ],
      "stateMutability": "view",
      "type": "function"
    },
    {
      "inputs": [
        {
          "internalType": "uint256",
          "name": "tokenId",
          "type": "uint256"
        }
      ],
      "name": "tokenURI",
      "outputs": [
        {
          "internalType": "string",
          "name": "",
          "type": "string"
        }
      ],
      "stateMutability": "view",
      "type": "function"
    },
    {
      "inputs": [
        {
          "internalType": "address",
          "name": "from",
          "type": "address"
        },
        {
          "internalType": "address",
          "name": "to",
          "type": "address"
        },
        {
          "internalType": "uint256",
          "name": "tokenId",
          "type": "uint256"
        }
      ],
      "name": "transferFrom",
      "outputs": [],
      "stateMutability": "nonpayable",
      "type": "function"
    },
    {
      "inputs": [
        {
          "internalType": "address",
          "name": "newOwner",
          "type": "address"
        }
      ],
      "name": "transferOwnership",
      "outputs": [],
      "stateMutability": "nonpayable",
      "type": "function"
    }
  ],
  "transactionHash": "0xac14b4f2cf2dc0a8f090e0c8817140f319808e47f11d4f8b1d371202f873ffad",
  "args": [],
  "numDeployments": 1,
  "solcInputHash": "09b79f5e21f9a98ec8ce4ca01e8e368d",
  "bytecode": "0x60806040523480156200001157600080fd5b506040518060400160405280600e81526020017f467572696f6e426c696e64426f780000000000000000000000000000000000008152506040518060400160405280600381526020017f46424200000000000000000000000000000000000000000000000000000000008152506200009e62000092620000ca60201b60201c565b620000d260201b60201c565b8160019081620000af919062000410565b508060029081620000c1919062000410565b505050620004f7565b600033905090565b60008060009054906101000a900473ffffffffffffffffffffffffffffffffffffffff169050816000806101000a81548173ffffffffffffffffffffffffffffffffffffffff021916908373ffffffffffffffffffffffffffffffffffffffff1602179055508173ffffffffffffffffffffffffffffffffffffffff168173ffffffffffffffffffffffffffffffffffffffff167f8be0079c531659141344cd1fd0a4f28419497f9722a3daafe3b4186f6b6457e060405160405180910390a35050565b600081519050919050565b7f4e487b7100000000000000000000000000000000000000000000000000000000600052604160045260246000fd5b7f4e487b7100000000000000000000000000000000000000000000000000000000600052602260045260246000fd5b600060028204905060018216806200021857607f821691505b6020821081036200022e576200022d620001d0565b5b50919050565b60008190508160005260206000209050919050565b60006020601f8301049050919050565b600082821b905092915050565b600060088302620002987fffffffffffffffffffffffffffffffffffffffffffffffffffffffffffffffff8262000259565b620002a4868362000259565b95508019841693508086168417925050509392505050565b6000819050919050565b6000819050919050565b6000620002f1620002eb620002e584620002bc565b620002c6565b620002bc565b9050919050565b6000819050919050565b6200030d83620002d0565b620003256200031c82620002f8565b84845462000266565b825550505050565b600090565b6200033c6200032d565b6200034981848462000302565b505050565b5b8181101562000371576200036560008262000332565b6001810190506200034f565b5050565b601f821115620003c0576200038a8162000234565b620003958462000249565b81016020851015620003a5578190505b620003bd620003b48562000249565b8301826200034e565b50505b505050565b600082821c905092915050565b6000620003e560001984600802620003c5565b1980831691505092915050565b6000620004008383620003d2565b9150826002028217905092915050565b6200041b8262000196565b67ffffffffffffffff811115620004375762000436620001a1565b5b620004438254620001ff565b6200045082828562000375565b600060209050601f83116001811462000488576000841562000473578287015190505b6200047f8582620003f2565b865550620004ef565b601f198416620004988662000234565b60005b82811015620004c2578489015182556001820191506020850194506020810190506200049b565b86831015620004e25784890151620004de601f891682620003d2565b8355505b6001600288020188555050505b505050505050565b61364a80620005076000396000f3fe608060405234801561001057600080fd5b50600436106101cf5760003560e01c806370a0823111610104578063be9a6555116100a2578063e985e9c511610071578063e985e9c5146104e2578063f2fde38b14610512578063f8b17f631461052e578063feae79071461055e576101cf565b8063be9a65551461045c578063c87b56dd14610466578063c884ef8314610496578063dab5f340146104c6576101cf565b80638da5cb5b116100de5780638da5cb5b146103e857806395d89b4114610406578063a22cb46514610424578063b88d4fde14610440576101cf565b806370a0823114610390578063715018a6146103c05780638059f60e146103ca576101cf565b80632d3802421161017157806342842e0e1161014b57806342842e0e1461030a57806355f804b3146103265780636352211e146103425780636c0360eb14610372576101cf565b80632d380242146102b25780632eb4a7ab146102d05780632f52ebb7146102ee576101cf565b8063081812fc116101ad578063081812fc1461022c578063095ea7b31461025c578063200d2ed21461027857806323b872dd14610296576101cf565b806301ffc9a7146101d457806306fdde031461020457806307da68f514610222575b600080fd5b6101ee60048036038101906101e991906120b8565b61057c565b6040516101fb9190612100565b60405180910390f35b61020c61065e565b60405161021991906121ab565b60405180910390f35b61022a6106f0565b005b61024660048036038101906102419190612203565b610702565b6040516102539190612271565b60405180910390f35b610276600480360381019061027191906122b8565b610748565b005b61028061085f565b60405161028d9190612307565b60405180910390f35b6102b060048036038101906102ab9190612322565b610865565b005b6102ba6108c5565b6040516102c79190612307565b60405180910390f35b6102d86108cb565b6040516102e5919061238e565b60405180910390f35b6103086004803603810190610303919061240e565b6108d1565b005b610324600480360381019061031f9190612322565b610aa3565b005b610340600480360381019061033b91906124c4565b610ac3565b005b61035c60048036038101906103579190612203565b610ae1565b6040516103699190612271565b60405180910390f35b61037a610b67565b60405161038791906121ab565b60405180910390f35b6103aa60048036038101906103a59190612511565b610bf5565b6040516103b79190612307565b60405180910390f35b6103c8610cac565b005b6103d2610cc0565b6040516103df9190612307565b60405180910390f35b6103f0610cc5565b6040516103fd9190612271565b60405180910390f35b61040e610cee565b60405161041b91906121ab565b60405180910390f35b61043e6004803603810190610439919061256a565b610d80565b005b61045a600480360381019061045591906126da565b610d96565b005b610464610df8565b005b610480600480360381019061047b9190612203565b610e0a565b60405161048d91906121ab565b60405180910390f35b6104b060048036038101906104ab9190612511565b610e72565b6040516104bd9190612100565b60405180910390f35b6104e060048036038101906104db9190612789565b610e92565b005b6104fc60048036038101906104f791906127b6565b610ea4565b6040516105099190612100565b60405180910390f35b61052c60048036038101906105279190612511565b610f38565b005b610548600480360381019061054391906127f6565b610fbb565b6040516105559190612100565b60405180910390f35b61056661103d565b6040516105739190612307565b60405180910390f35b60007f80ac58cd000000000000000000000000000000000000000000000000000000007bffffffffffffffffffffffffffffffffffffffffffffffffffffffff1916827bffffffffffffffffffffffffffffffffffffffffffffffffffffffff1916148061064757507f5b5e139f000000000000000000000000000000000000000000000000000000007bffffffffffffffffffffffffffffffffffffffffffffffffffffffff1916827bffffffffffffffffffffffffffffffffffffffffffffffffffffffff1916145b80610657575061065682611042565b5b9050919050565b60606001805461066d90612899565b80601f016020809104026020016040519081016040528092919081815260200182805461069990612899565b80156106e65780601f106106bb576101008083540402835291602001916106e6565b820191906000526020600020905b8154815290600101906020018083116106c957829003601f168201915b5050505050905090565b6106f86110ac565b6000600781905550565b600061070d8261112a565b6005600083815260200190815260200160002060009054906101000a900473ffffffffffffffffffffffffffffffffffffffff169050919050565b600061075382610ae1565b90508073ffffffffffffffffffffffffffffffffffffffff168373ffffffffffffffffffffffffffffffffffffffff16036107c3576040517f08c379a00000000000000000000000000000000000000000000000000000000081526004016107ba9061293c565b60405180910390fd5b8073ffffffffffffffffffffffffffffffffffffffff166107e2611175565b73ffffffffffffffffffffffffffffffffffffffff16148061081157506108108161080b611175565b610ea4565b5b610850576040517f08c379a0000000000000000000000000000000000000000000000000000000008152600401610847906129ce565b60405180910390fd5b61085a838361117d565b505050565b60075481565b610876610870611175565b82611236565b6108b5576040517f08c379a00000000000000000000000000000000000000000000000000000000081526004016108ac90612a60565b60405180910390fd5b6108c08383836112cb565b505050565b600a5481565b60085481565b600160075414610916576040517f08c379a000000000000000000000000000000000000000000000000000000000815260040161090d90612acc565b60405180910390fd5b600b60003373ffffffffffffffffffffffffffffffffffffffff1673ffffffffffffffffffffffffffffffffffffffff16815260200190815260200160002060009054906101000a900460ff16156109a3576040517f08c379a000000000000000000000000000000000000000000000000000000000815260040161099a90612b38565b60405180910390fd5b6109af33848484610fbb565b6109ee576040517f08c379a00000000000000000000000000000000000000000000000000000000081526004016109e590612bca565b60405180910390fd5b6001600b60003373ffffffffffffffffffffffffffffffffffffffff1673ffffffffffffffffffffffffffffffffffffffff16815260200190815260200160002060006101000a81548160ff021916908315150217905550610a5033846115c4565b3373ffffffffffffffffffffffffffffffffffffffff167f5fb3cf231d09fe8436da8d05de5474e6758502f73701a905ac41d27207c7c10284604051610a969190612307565b60405180910390a2505050565b610abe83838360405180602001604052806000815250610d96565b505050565b610acb6110ac565b818160099182610adc929190612da1565b505050565b600080610aed8361160d565b9050600073ffffffffffffffffffffffffffffffffffffffff168173ffffffffffffffffffffffffffffffffffffffff1603610b5e576040517f08c379a0000000000000000000000000000000000000000000000000000000008152600401610b5590612ebd565b60405180910390fd5b80915050919050565b60098054610b7490612899565b80601f0160208091040260200160405190810160405280929190818152602001828054610ba090612899565b8015610bed5780601f10610bc257610100808354040283529160200191610bed565b820191906000526020600020905b815481529060010190602001808311610bd057829003601f168201915b505050505081565b60008073ffffffffffffffffffffffffffffffffffffffff168273ffffffffffffffffffffffffffffffffffffffff1603610c65576040517f08c379a0000000000000000000000000000000000000000000000000000000008152600401610c5c90612f4f565b60405180910390fd5b600460008373ffffffffffffffffffffffffffffffffffffffff1673ffffffffffffffffffffffffffffffffffffffff168152602001908152602001600020549050919050565b610cb46110ac565b610cbe600061164a565b565b600081565b60008060009054906101000a900473ffffffffffffffffffffffffffffffffffffffff16905090565b606060028054610cfd90612899565b80601f0160208091040260200160405190810160405280929190818152602001828054610d2990612899565b8015610d765780601f10610d4b57610100808354040283529160200191610d76565b820191906000526020600020905b815481529060010190602001808311610d5957829003601f168201915b5050505050905090565b610d92610d8b611175565b838361170e565b5050565b610da7610da1611175565b83611236565b610de6576040517f08c379a0000000000000000000000000000000000000000000000000000000008152600401610ddd90612a60565b60405180910390fd5b610df28484848461187a565b50505050565b610e006110ac565b6001600781905550565b6060610e158261112a565b6000610e1f6118d6565b90506000815111610e3f5760405180602001604052806000815250610e6a565b80610e4984611968565b604051602001610e5a929190612fab565b6040516020818303038152906040525b915050919050565b600b6020528060005260406000206000915054906101000a900460ff1681565b610e9a6110ac565b8060088190555050565b6000600660008473ffffffffffffffffffffffffffffffffffffffff1673ffffffffffffffffffffffffffffffffffffffff16815260200190815260200160002060008373ffffffffffffffffffffffffffffffffffffffff1673ffffffffffffffffffffffffffffffffffffffff16815260200190815260200160002060009054906101000a900460ff16905092915050565b610f406110ac565b600073ffffffffffffffffffffffffffffffffffffffff168173ffffffffffffffffffffffffffffffffffffffff1603610faf576040517f08c379a0000000000000000000000000000000000000000000000000000000008152600401610fa690613041565b60405180910390fd5b610fb88161164a565b50565b6000611033838380806020026020016040519081016040528093929190818152602001838360200280828437600081840152601f19601f8201169050808301925050505050505060085487876040516020016110189291906130ca565b60405160208183030381529060405280519060200120611a36565b9050949350505050565b600181565b60007f01ffc9a7000000000000000000000000000000000000000000000000000000007bffffffffffffffffffffffffffffffffffffffffffffffffffffffff1916827bffffffffffffffffffffffffffffffffffffffffffffffffffffffff1916149050919050565b6110b4611175565b73ffffffffffffffffffffffffffffffffffffffff166110d2610cc5565b73ffffffffffffffffffffffffffffffffffffffff1614611128576040517f08c379a000000000000000000000000000000000000000000000000000000000815260040161111f90613142565b60405180910390fd5b565b61113381611a4d565b611172576040517f08c379a000000000000000000000000000000000000000000000000000000000815260040161116990612ebd565b60405180910390fd5b50565b600033905090565b816005600083815260200190815260200160002060006101000a81548173ffffffffffffffffffffffffffffffffffffffff021916908373ffffffffffffffffffffffffffffffffffffffff160217905550808273ffffffffffffffffffffffffffffffffffffffff166111f083610ae1565b73ffffffffffffffffffffffffffffffffffffffff167f8c5be1e5ebec7d5bd14f71427d1e84f3dd0314c0f7b2291e5b200ac8c7c3b92560405160405180910390a45050565b60008061124283610ae1565b90508073ffffffffffffffffffffffffffffffffffffffff168473ffffffffffffffffffffffffffffffffffffffff16148061128457506112838185610ea4565b5b806112c257508373ffffffffffffffffffffffffffffffffffffffff166112aa84610702565b73ffffffffffffffffffffffffffffffffffffffff16145b91505092915050565b8273ffffffffffffffffffffffffffffffffffffffff166112eb82610ae1565b73ffffffffffffffffffffffffffffffffffffffff1614611341576040517f08c379a0000000000000000000000000000000000000000000000000000000008152600401611338906131d4565b60405180910390fd5b600073ffffffffffffffffffffffffffffffffffffffff168273ffffffffffffffffffffffffffffffffffffffff16036113b0576040517f08c379a00000000000000000000000000000000000000000000000000000000081526004016113a790613266565b60405180910390fd5b6113bd8383836001611a8e565b8273ffffffffffffffffffffffffffffffffffffffff166113dd82610ae1565b73ffffffffffffffffffffffffffffffffffffffff1614611433576040517f08c379a000000000000000000000000000000000000000000000000000000000815260040161142a906131d4565b60405180910390fd5b6005600082815260200190815260200160002060006101000a81549073ffffffffffffffffffffffffffffffffffffffff02191690556001600460008573ffffffffffffffffffffffffffffffffffffffff1673ffffffffffffffffffffffffffffffffffffffff168152602001908152602001600020600082825403925050819055506001600460008473ffffffffffffffffffffffffffffffffffffffff1673ffffffffffffffffffffffffffffffffffffffff16815260200190815260200160002060008282540192505081905550816003600083815260200190815260200160002060006101000a81548173ffffffffffffffffffffffffffffffffffffffff021916908373ffffffffffffffffffffffffffffffffffffffff160217905550808273ffffffffffffffffffffffffffffffffffffffff168473ffffffffffffffffffffffffffffffffffffffff167fddf252ad1be2c89b69c2b068fc378daa952ba7f163c4a11628f55a4df523b3ef60405160405180910390a46115bf8383836001611a94565b505050565b6000600a54905060005b828110156115f7576115ec84836115e4906132b5565b935083611a9a565b8060010190506115ce565b5081600a60008282540192505081905550505050565b60006003600083815260200190815260200160002060009054906101000a900473ffffffffffffffffffffffffffffffffffffffff169050919050565b60008060009054906101000a900473ffffffffffffffffffffffffffffffffffffffff169050816000806101000a81548173ffffffffffffffffffffffffffffffffffffffff021916908373ffffffffffffffffffffffffffffffffffffffff1602179055508173ffffffffffffffffffffffffffffffffffffffff168173ffffffffffffffffffffffffffffffffffffffff167f8be0079c531659141344cd1fd0a4f28419497f9722a3daafe3b4186f6b6457e060405160405180910390a35050565b8173ffffffffffffffffffffffffffffffffffffffff168373ffffffffffffffffffffffffffffffffffffffff160361177c576040517f08c379a000000000000000000000000000000000000000000000000000000000815260040161177390613349565b60405180910390fd5b80600660008573ffffffffffffffffffffffffffffffffffffffff1673ffffffffffffffffffffffffffffffffffffffff16815260200190815260200160002060008473ffffffffffffffffffffffffffffffffffffffff1673ffffffffffffffffffffffffffffffffffffffff16815260200190815260200160002060006101000a81548160ff0219169083151502179055508173ffffffffffffffffffffffffffffffffffffffff168373ffffffffffffffffffffffffffffffffffffffff167f17307eab39ab6107e8899845ad3d59bd9653f200f220920489ca2b5937696c318360405161186d9190612100565b60405180910390a3505050565b6118858484846112cb565b61189184848484611cb7565b6118d0576040517f08c379a00000000000000000000000000000000000000000000000000000000081526004016118c7906133db565b60405180910390fd5b50505050565b6060600980546118e590612899565b80601f016020809104026020016040519081016040528092919081815260200182805461191190612899565b801561195e5780601f106119335761010080835404028352916020019161195e565b820191906000526020600020905b81548152906001019060200180831161194157829003601f168201915b5050505050905090565b60606000600161197784611e3e565b01905060008167ffffffffffffffff811115611996576119956125af565b5b6040519080825280601f01601f1916602001820160405280156119c85781602001600182028036833780820191505090505b509050600082602001820190505b600115611a2b578080600190039150507f3031323334353637383961626364656600000000000000000000000000000000600a86061a8153600a8581611a1f57611a1e6133fb565b5b049450600085036119d6575b819350505050919050565b600082611a438584611f91565b1490509392505050565b60008073ffffffffffffffffffffffffffffffffffffffff16611a6f8361160d565b73ffffffffffffffffffffffffffffffffffffffff1614159050919050565b50505050565b50505050565b600073ffffffffffffffffffffffffffffffffffffffff168273ffffffffffffffffffffffffffffffffffffffff1603611b09576040517f08c379a0000000000000000000000000000000000000000000000000000000008152600401611b0090613476565b60405180910390fd5b611b1281611a4d565b15611b52576040517f08c379a0000000000000000000000000000000000000000000000000000000008152600401611b49906134e2565b60405180910390fd5b611b60600083836001611a8e565b611b6981611a4d565b15611ba9576040517f08c379a0000000000000000000000000000000000000000000000000000000008152600401611ba0906134e2565b60405180910390fd5b6001600460008473ffffffffffffffffffffffffffffffffffffffff1673ffffffffffffffffffffffffffffffffffffffff16815260200190815260200160002060008282540192505081905550816003600083815260200190815260200160002060006101000a81548173ffffffffffffffffffffffffffffffffffffffff021916908373ffffffffffffffffffffffffffffffffffffffff160217905550808273ffffffffffffffffffffffffffffffffffffffff16600073ffffffffffffffffffffffffffffffffffffffff167fddf252ad1be2c89b69c2b068fc378daa952ba7f163c4a11628f55a4df523b3ef60405160405180910390a4611cb3600083836001611a94565b5050565b6000611cd88473ffffffffffffffffffffffffffffffffffffffff16611fe7565b15611e31578373ffffffffffffffffffffffffffffffffffffffff1663150b7a02611d01611175565b8786866040518563ffffffff1660e01b8152600401611d239493929190613557565b6020604051808303816000875af1925050508015611d5f57506040513d601f19601f82011682018060405250810190611d5c91906135b8565b60015b611de1573d8060008114611d8f576040519150601f19603f3d011682016040523d82523d6000602084013e611d94565b606091505b506000815103611dd9576040517f08c379a0000000000000000000000000000000000000000000000000000000008152600401611dd0906133db565b60405180910390fd5b805181602001fd5b63150b7a0260e01b7bffffffffffffffffffffffffffffffffffffffffffffffffffffffff1916817bffffffffffffffffffffffffffffffffffffffffffffffffffffffff191614915050611e36565b600190505b949350505050565b600080600090507a184f03e93ff9f4daa797ed6e38ed64bf6a1f0100000000000000008310611e9c577a184f03e93ff9f4daa797ed6e38ed64bf6a1f0100000000000000008381611e9257611e916133fb565b5b0492506040810190505b6d04ee2d6d415b85acef81000000008310611ed9576d04ee2d6d415b85acef81000000008381611ecf57611ece6133fb565b5b0492506020810190505b662386f26fc100008310611f0857662386f26fc100008381611efe57611efd6133fb565b5b0492506010810190505b6305f5e1008310611f31576305f5e1008381611f2757611f266133fb565b5b0492506008810190505b6127108310611f56576127108381611f4c57611f4b6133fb565b5b0492506004810190505b60648310611f795760648381611f6f57611f6e6133fb565b5b0492506002810190505b600a8310611f88576001810190505b80915050919050565b60008082905060005b8451811015611fdc57611fc782868381518110611fba57611fb96135e5565b5b602002602001015161200a565b91508080611fd4906132b5565b915050611f9a565b508091505092915050565b6000808273ffffffffffffffffffffffffffffffffffffffff163b119050919050565b60008183106120225761201d8284612035565b61202d565b61202c8383612035565b5b905092915050565b600082600052816020526040600020905092915050565b6000604051905090565b600080fd5b600080fd5b60007fffffffff0000000000000000000000000000000000000000000000000000000082169050919050565b61209581612060565b81146120a057600080fd5b50565b6000813590506120b28161208c565b92915050565b6000602082840312156120ce576120cd612056565b5b60006120dc848285016120a3565b91505092915050565b60008115159050919050565b6120fa816120e5565b82525050565b600060208201905061211560008301846120f1565b92915050565b600081519050919050565b600082825260208201905092915050565b60005b8381101561215557808201518184015260208101905061213a565b60008484015250505050565b6000601f19601f8301169050919050565b600061217d8261211b565b6121878185612126565b9350612197818560208601612137565b6121a081612161565b840191505092915050565b600060208201905081810360008301526121c58184612172565b905092915050565b6000819050919050565b6121e0816121cd565b81146121eb57600080fd5b50565b6000813590506121fd816121d7565b92915050565b60006020828403121561221957612218612056565b5b6000612227848285016121ee565b91505092915050565b600073ffffffffffffffffffffffffffffffffffffffff82169050919050565b600061225b82612230565b9050919050565b61226b81612250565b82525050565b60006020820190506122866000830184612262565b92915050565b61229581612250565b81146122a057600080fd5b50565b6000813590506122b28161228c565b92915050565b600080604083850312156122cf576122ce612056565b5b60006122dd858286016122a3565b92505060206122ee858286016121ee565b9150509250929050565b612301816121cd565b82525050565b600060208201905061231c60008301846122f8565b92915050565b60008060006060848603121561233b5761233a612056565b5b6000612349868287016122a3565b935050602061235a868287016122a3565b925050604061236b868287016121ee565b9150509250925092565b6000819050919050565b61238881612375565b82525050565b60006020820190506123a3600083018461237f565b92915050565b600080fd5b600080fd5b600080fd5b60008083601f8401126123ce576123cd6123a9565b5b8235905067ffffffffffffffff8111156123eb576123ea6123ae565b5b602083019150836020820283011115612407576124066123b3565b5b9250929050565b60008060006040848603121561242757612426612056565b5b6000612435868287016121ee565b935050602084013567ffffffffffffffff8111156124565761245561205b565b5b612462868287016123b8565b92509250509250925092565b60008083601f840112612484576124836123a9565b5b8235905067ffffffffffffffff8111156124a1576124a06123ae565b5b6020830191508360018202830111156124bd576124bc6123b3565b5b9250929050565b600080602083850312156124db576124da612056565b5b600083013567ffffffffffffffff8111156124f9576124f861205b565b5b6125058582860161246e565b92509250509250929050565b60006020828403121561252757612526612056565b5b6000612535848285016122a3565b91505092915050565b612547816120e5565b811461255257600080fd5b50565b6000813590506125648161253e565b92915050565b6000806040838503121561258157612580612056565b5b600061258f858286016122a3565b92505060206125a085828601612555565b9150509250929050565b600080fd5b7f4e487b7100000000000000000000000000000000000000000000000000000000600052604160045260246000fd5b6125e782612161565b810181811067ffffffffffffffff82111715612606576126056125af565b5b80604052505050565b600061261961204c565b905061262582826125de565b919050565b600067ffffffffffffffff821115612645576126446125af565b5b61264e82612161565b9050602081019050919050565b82818337600083830152505050565b600061267d6126788461262a565b61260f565b905082815260208101848484011115612699576126986125aa565b5b6126a484828561265b565b509392505050565b600082601f8301126126c1576126c06123a9565b5b81356126d184826020860161266a565b91505092915050565b600080600080608085870312156126f4576126f3612056565b5b6000612702878288016122a3565b9450506020612713878288016122a3565b9350506040612724878288016121ee565b925050606085013567ffffffffffffffff8111156127455761274461205b565b5b612751878288016126ac565b91505092959194509250565b61276681612375565b811461277157600080fd5b50565b6000813590506127838161275d565b92915050565b60006020828403121561279f5761279e612056565b5b60006127ad84828501612774565b91505092915050565b600080604083850312156127cd576127cc612056565b5b60006127db858286016122a3565b92505060206127ec858286016122a3565b9150509250929050565b600080600080606085870312156128105761280f612056565b5b600061281e878288016122a3565b945050602061282f878288016121ee565b935050604085013567ffffffffffffffff8111156128505761284f61205b565b5b61285c878288016123b8565b925092505092959194509250565b7f4e487b7100000000000000000000000000000000000000000000000000000000600052602260045260246000fd5b600060028204905060018216806128b157607f821691505b6020821081036128c4576128c361286a565b5b50919050565b7f4552433732313a20617070726f76616c20746f2063757272656e74206f776e6560008201527f7200000000000000000000000000000000000000000000000000000000000000602082015250565b6000612926602183612126565b9150612931826128ca565b604082019050919050565b6000602082019050818103600083015261295581612919565b9050919050565b7f4552433732313a20617070726f76652063616c6c6572206973206e6f7420746f60008201527f6b656e206f776e6572206f7220617070726f76656420666f7220616c6c000000602082015250565b60006129b8603d83612126565b91506129c38261295c565b604082019050919050565b600060208201905081810360008301526129e7816129ab565b9050919050565b7f4552433732313a2063616c6c6572206973206e6f7420746f6b656e206f776e6560008201527f72206f7220617070726f76656400000000000000000000000000000000000000602082015250565b6000612a4a602d83612126565b9150612a55826129ee565b604082019050919050565b60006020820190508181036000830152612a7981612a3d565b9050919050565b7f467572696f6e426c696e64426f783a206e6f7420636c61696d2074696d650000600082015250565b6000612ab6601e83612126565b9150612ac182612a80565b602082019050919050565b60006020820190508181036000830152612ae581612aa9565b9050919050565b7f467572696f6e426c696e64426f783a20616c726561647920636c61696d656400600082015250565b6000612b22601f83612126565b9150612b2d82612aec565b602082019050919050565b60006020820190508181036000830152612b5181612b15565b9050919050565b7f467572696f6e426c696e64426f783a206e6f7420616c6c6f77656420746f206360008201527f6c61696d00000000000000000000000000000000000000000000000000000000602082015250565b6000612bb4602483612126565b9150612bbf82612b58565b604082019050919050565b60006020820190508181036000830152612be381612ba7565b9050919050565b600082905092915050565b60008190508160005260206000209050919050565b60006020601f8301049050919050565b600082821b905092915050565b600060088302612c577fffffffffffffffffffffffffffffffffffffffffffffffffffffffffffffffff82612c1a565b612c618683612c1a565b95508019841693508086168417925050509392505050565b6000819050919050565b6000612c9e612c99612c94846121cd565b612c79565b6121cd565b9050919050565b6000819050919050565b612cb883612c83565b612ccc612cc482612ca5565b848454612c27565b825550505050565b600090565b612ce1612cd4565b612cec818484612caf565b505050565b5b81811015612d1057612d05600082612cd9565b600181019050612cf2565b5050565b601f821115612d5557612d2681612bf5565b612d2f84612c0a565b81016020851015612d3e578190505b612d52612d4a85612c0a565b830182612cf1565b50505b505050565b600082821c905092915050565b6000612d7860001984600802612d5a565b1980831691505092915050565b6000612d918383612d67565b9150826002028217905092915050565b612dab8383612bea565b67ffffffffffffffff811115612dc457612dc36125af565b5b612dce8254612899565b612dd9828285612d14565b6000601f831160018114612e085760008415612df6578287013590505b612e008582612d85565b865550612e68565b601f198416612e1686612bf5565b60005b82811015612e3e57848901358255600182019150602085019450602081019050612e19565b86831015612e5b5784890135612e57601f891682612d67565b8355505b6001600288020188555050505b50505050505050565b7f4552433732313a20696e76616c696420746f6b656e2049440000000000000000600082015250565b6000612ea7601883612126565b9150612eb282612e71565b602082019050919050565b60006020820190508181036000830152612ed681612e9a565b9050919050565b7f4552433732313a2061646472657373207a65726f206973206e6f74206120766160008201527f6c6964206f776e65720000000000000000000000000000000000000000000000602082015250565b6000612f39602983612126565b9150612f4482612edd565b604082019050919050565b60006020820190508181036000830152612f6881612f2c565b9050919050565b600081905092915050565b6000612f858261211b565b612f8f8185612f6f565b9350612f9f818560208601612137565b80840191505092915050565b6000612fb78285612f7a565b9150612fc38284612f7a565b91508190509392505050565b7f4f776e61626c653a206e6577206f776e657220697320746865207a65726f206160008201527f6464726573730000000000000000000000000000000000000000000000000000602082015250565b600061302b602683612126565b915061303682612fcf565b604082019050919050565b6000602082019050818103600083015261305a8161301e565b9050919050565b60008160601b9050919050565b600061307982613061565b9050919050565b600061308b8261306e565b9050919050565b6130a361309e82612250565b613080565b82525050565b6000819050919050565b6130c46130bf826121cd565b6130a9565b82525050565b60006130d68285613092565b6014820191506130e682846130b3565b6020820191508190509392505050565b7f4f776e61626c653a2063616c6c6572206973206e6f7420746865206f776e6572600082015250565b600061312c602083612126565b9150613137826130f6565b602082019050919050565b6000602082019050818103600083015261315b8161311f565b9050919050565b7f4552433732313a207472616e736665722066726f6d20696e636f72726563742060008201527f6f776e6572000000000000000000000000000000000000000000000000000000602082015250565b60006131be602583612126565b91506131c982613162565b604082019050919050565b600060208201905081810360008301526131ed816131b1565b9050919050565b7f4552433732313a207472616e7366657220746f20746865207a65726f2061646460008201527f7265737300000000000000000000000000000000000000000000000000000000602082015250565b6000613250602483612126565b915061325b826131f4565b604082019050919050565b6000602082019050818103600083015261327f81613243565b9050919050565b7f4e487b7100000000000000000000000000000000000000000000000000000000600052601160045260246000fd5b60006132c0826121cd565b91507fffffffffffffffffffffffffffffffffffffffffffffffffffffffffffffffff82036132f2576132f1613286565b5b600182019050919050565b7f4552433732313a20617070726f766520746f2063616c6c657200000000000000600082015250565b6000613333601983612126565b915061333e826132fd565b602082019050919050565b6000602082019050818103600083015261336281613326565b9050919050565b7f4552433732313a207472616e7366657220746f206e6f6e20455243373231526560008201527f63656976657220696d706c656d656e7465720000000000000000000000000000602082015250565b60006133c5603283612126565b91506133d082613369565b604082019050919050565b600060208201905081810360008301526133f4816133b8565b9050919050565b7f4e487b7100000000000000000000000000000000000000000000000000000000600052601260045260246000fd5b7f4552433732313a206d696e7420746f20746865207a65726f2061646472657373600082015250565b6000613460602083612126565b915061346b8261342a565b602082019050919050565b6000602082019050818103600083015261348f81613453565b9050919050565b7f4552433732313a20746f6b656e20616c7265616479206d696e74656400000000600082015250565b60006134cc601c83612126565b91506134d782613496565b602082019050919050565b600060208201905081810360008301526134fb816134bf565b9050919050565b600081519050919050565b600082825260208201905092915050565b600061352982613502565b613533818561350d565b9350613543818560208601612137565b61354c81612161565b840191505092915050565b600060808201905061356c6000830187612262565b6135796020830186612262565b61358660408301856122f8565b8181036060830152613598818461351e565b905095945050505050565b6000815190506135b28161208c565b92915050565b6000602082840312156135ce576135cd612056565b5b60006135dc848285016135a3565b91505092915050565b7f4e487b7100000000000000000000000000000000000000000000000000000000600052603260045260246000fdfea2646970667358221220473ecabc1f0a4e76b63aedd7cc4fc02d2436b962120da2f869c2dbb3fbbe1d4664736f6c63430008110033",
  "devdoc": {
    "kind": "dev",
    "methods": {
      "approve(address,uint256)": {
        "details": "See {IERC721-approve}."
      },
      "balanceOf(address)": {
        "details": "See {IERC721-balanceOf}."
      },
      "getApproved(uint256)": {
        "details": "See {IERC721-getApproved}."
      },
      "isApprovedForAll(address,address)": {
        "details": "See {IERC721-isApprovedForAll}."
      },
      "name()": {
        "details": "See {IERC721Metadata-name}."
      },
      "owner()": {
        "details": "Returns the address of the current owner."
      },
      "ownerOf(uint256)": {
        "details": "See {IERC721-ownerOf}."
      },
      "renounceOwnership()": {
        "details": "Leaves the contract without owner. It will not be possible to call `onlyOwner` functions. Can only be called by the current owner. NOTE: Renouncing ownership will leave the contract without an owner, thereby disabling any functionality that is only available to the owner."
      },
      "safeTransferFrom(address,address,uint256)": {
        "details": "See {IERC721-safeTransferFrom}."
      },
      "safeTransferFrom(address,address,uint256,bytes)": {
        "details": "See {IERC721-safeTransferFrom}."
      },
      "setApprovalForAll(address,bool)": {
        "details": "See {IERC721-setApprovalForAll}."
      },
      "supportsInterface(bytes4)": {
        "details": "See {IERC165-supportsInterface}."
      },
      "symbol()": {
        "details": "See {IERC721Metadata-symbol}."
      },
      "tokenURI(uint256)": {
        "details": "See {IERC721Metadata-tokenURI}."
      },
      "transferFrom(address,address,uint256)": {
        "details": "See {IERC721-transferFrom}."
      },
      "transferOwnership(address)": {
        "details": "Transfers ownership of the contract to a new account (`newOwner`). Can only be called by the current owner."
      }
    },
    "version": 1
  },
  "userdoc": {
    "kind": "user",
    "methods": {},
    "version": 1
  },
  "storageLayout": {
    "storage": [
      {
        "astId": 7,
        "contract": "contracts/FurionBlindBox.sol:FurionBlindBox",
        "label": "_owner",
        "offset": 0,
        "slot": "0",
        "type": "t_address"
      },
      {
        "astId": 138,
        "contract": "contracts/FurionBlindBox.sol:FurionBlindBox",
        "label": "_name",
        "offset": 0,
        "slot": "1",
        "type": "t_string_storage"
      },
      {
        "astId": 140,
        "contract": "contracts/FurionBlindBox.sol:FurionBlindBox",
        "label": "_symbol",
        "offset": 0,
        "slot": "2",
        "type": "t_string_storage"
      },
      {
        "astId": 144,
        "contract": "contracts/FurionBlindBox.sol:FurionBlindBox",
        "label": "_owners",
        "offset": 0,
        "slot": "3",
        "type": "t_mapping(t_uint256,t_address)"
      },
      {
        "astId": 148,
        "contract": "contracts/FurionBlindBox.sol:FurionBlindBox",
        "label": "_balances",
        "offset": 0,
        "slot": "4",
        "type": "t_mapping(t_address,t_uint256)"
      },
      {
        "astId": 152,
        "contract": "contracts/FurionBlindBox.sol:FurionBlindBox",
        "label": "_tokenApprovals",
        "offset": 0,
        "slot": "5",
        "type": "t_mapping(t_uint256,t_address)"
      },
      {
        "astId": 158,
        "contract": "contracts/FurionBlindBox.sol:FurionBlindBox",
        "label": "_operatorApprovals",
        "offset": 0,
        "slot": "6",
        "type": "t_mapping(t_address,t_mapping(t_address,t_bool))"
      },
      {
        "astId": 3314,
        "contract": "contracts/FurionBlindBox.sol:FurionBlindBox",
        "label": "status",
        "offset": 0,
        "slot": "7",
        "type": "t_uint256"
      },
      {
        "astId": 3316,
        "contract": "contracts/FurionBlindBox.sol:FurionBlindBox",
        "label": "merkleRoot",
        "offset": 0,
        "slot": "8",
        "type": "t_bytes32"
      },
      {
        "astId": 3318,
        "contract": "contracts/FurionBlindBox.sol:FurionBlindBox",
        "label": "baseURI",
        "offset": 0,
        "slot": "9",
        "type": "t_string_storage"
      },
      {
        "astId": 3320,
        "contract": "contracts/FurionBlindBox.sol:FurionBlindBox",
        "label": "mintedAmount",
        "offset": 0,
        "slot": "10",
        "type": "t_uint256"
      },
      {
        "astId": 3324,
        "contract": "contracts/FurionBlindBox.sol:FurionBlindBox",
        "label": "claimed",
        "offset": 0,
        "slot": "11",
        "type": "t_mapping(t_address,t_bool)"
      }
    ],
    "types": {
      "t_address": {
        "encoding": "inplace",
        "label": "address",
        "numberOfBytes": "20"
      },
      "t_bool": {
        "encoding": "inplace",
        "label": "bool",
        "numberOfBytes": "1"
      },
      "t_bytes32": {
        "encoding": "inplace",
        "label": "bytes32",
        "numberOfBytes": "32"
      },
      "t_mapping(t_address,t_bool)": {
        "encoding": "mapping",
        "key": "t_address",
        "label": "mapping(address => bool)",
        "numberOfBytes": "32",
        "value": "t_bool"
      },
      "t_mapping(t_address,t_mapping(t_address,t_bool))": {
        "encoding": "mapping",
        "key": "t_address",
        "label": "mapping(address => mapping(address => bool))",
        "numberOfBytes": "32",
        "value": "t_mapping(t_address,t_bool)"
      },
      "t_mapping(t_address,t_uint256)": {
        "encoding": "mapping",
        "key": "t_address",
        "label": "mapping(address => uint256)",
        "numberOfBytes": "32",
        "value": "t_uint256"
      },
      "t_mapping(t_uint256,t_address)": {
        "encoding": "mapping",
        "key": "t_uint256",
        "label": "mapping(uint256 => address)",
        "numberOfBytes": "32",
        "value": "t_address"
      },
      "t_string_storage": {
        "encoding": "bytes",
        "label": "string",
        "numberOfBytes": "32"
      },
      "t_uint256": {
        "encoding": "inplace",
        "label": "uint256",
        "numberOfBytes": "32"
      }
    }
  }
}